:100000000C945F000C9432070C9459070C948700F1
:100010000C9487000C9487000C9487000C94870044
:100020000C9487000C9487000C9487000C94870034
:100030000C9487000C9487000C9487000C94870024
:100040000C9480070C9487000C943D060C946F066A
:100050000C9487000C9487000C9487000C94870004
:100060000C9487000C948700000000080002010037
:100070000003040700000000000000000102040863
:100080001020408001020408102001020408102002
:10009000040404040404040402020202020203032E
:1000A0000303030300000000250028002B000000CC
:1000B0000000240027002A0056039F069403112401
:1000C0001FBECFEFD8E0DEBFCDBF15E0A0E0B1E0AE
:1000D000E4EDFAE102C005900D92A238B107D9F71C
:1000E00026E0A2E8B5E001C01D92A73DB207E1F706
:1000F00010E0CEE5D0E004C02197FE010E94450942
:10010000CC35D107C9F70E94CD060C945D0D0C9437
:100110000000EF92FF920F931F93CF93DF93CDB721
:10012000DEB72A970FB6F894DEBF0FBECDBF498366
:100130005A836B837C83EE82FF82088719872B8129
:100140003C81888599852817390799F429813A8156
:100150008E819F8111E02817390708F010E02817D9
:10016000390761F46AE071E08DE296E00E941F07B2
:1001700005C011E08217930708F410E0812F2A963A
:100180000FB6F894DEBF0FBECDBFDF91CF911F91A8
:100190000F91FF90EF9008957F928F929F92AF9270
:1001A000BF92CF92DF92EF92FF920F931F93CF9364
:1001B000DF9300D000D01F92CDB7DEB7882E298301
:1001C0003A834B835C836D8390902706911017C010
:1001D00081110EC01092F60585E0FE013196AEEF5A
:1001E000B5E001900D928A95E1F79924939488C027
:1001F00067E471E08DE296E00E941F0781C0C92C80
:10020000D12C560141E0A41AB1082B813C8185E034
:100210008A9DF0018B9DF00D1124E250FA4F8281EE
:1002200093812817390759F08217930728F4A901F9
:10023000481B590BCA0105C0821B930B02C080E00A
:1002400090E09C01235031092330310520F00797BD
:10025000039708F04BC051E0951216C085E08A9DC7
:10026000F0018B9DF00D1124E250FA4FE080F180F7
:1002700002811381248149815A816B817C818D8126
:100280000E9489008093260685E0782E7A9CF001F2
:100290007B9CF00D1124E250FA4FE080F180028146
:1002A0001381248149815A816B817C818D810E94D7
:1002B000890090912606891316C0F601E651FA4F7F
:1002C00084867C9CD0017D9CB00D1124A250BA4F35
:1002D00085E0FE01319601900D928A95E1F79394A5
:1002E00091100EC009C065E971E002C06DEB71E0CC
:1002F0008DE296E00E941F07882009F46BCF912CB5
:10030000909227060F900F900F900F900F90DF9113
:10031000CF911F910F91FF90EF90DF90CF90BF9002
:10032000AF909F908F907F900895CF93DF93EB01D4
:100330008330A1F120F4813008F084C004C18430FE
:1003400009F455C0853009F0FEC020912A0630918D
:100350002B06205E314B261B370B3093E90520938B
:10036000E80570938305609382053F932F931F9256
:100370008F93DF936F9386EA92E09F938F9384E845
:1003800095E09F938F930E94730A8DB79EB70A964C
:100390000FB6F8949EBF0FBE8DBF51C080912A0644
:1003A00090912B064496861B970B9093E9058093BA
:1003B000E80570938305609382059F938F931F9246
:1003C00084E18F93DF936F9381EF91E09F938F93FD
:1003D00084E895E09F938F930E94730A8DB79EB730
:1003E0000A960FB6F8949EBF0FBE8DBF28C020910D
:1003F0002A0630912B06205F384D261B370B309391
:10040000E9052093E80570938305609382053F9387
:100410002F931F928F93DF936F938CE492E09F93BF
:100420008F9384E895E09F938F930E94730A8DB712
:100430009EB70A960FB6F8949EBF0FBE8DBF64E8B4
:1004400075E07BC08091E8059091E905892B09F45E
:1004500072C080918205909183059C0128513C4F88
:100460006217730720F4C901861B970B06C0AB0106
:10047000481B590BCA01885E934082339105B0F541
:10048000DF93CF933F932F939F938F9380E093E0DD
:100490009F938F9384E895E09F938F930E94730AB4
:1004A00064E875E08DE296E00E941F0720918205C6
:1004B0003091830580912A0690912B06820F931F1D
:1004C00002968C1B9D0B9093E9058093E8052E5FA7
:1004D0003F4F30938305209382058DB79EB70A96D0
:1004E0000FB6F8949EBF0FBE8DBF2DC01092E905C8
:1004F0001092E805DF93CF933F932F939F938F93B1
:1005000080E693E09F938F9384E895E09F938F9389
:100510000E94730A64E875E08DE296E00E941F076E
:100520008DB79EB70A960FB6F8949EBF0FBE8DBFCB
:100530006FEB73E002C064ED73E08DE296E0DF9153
:10054000CF910C941F07DF91CF910895CF92DF9246
:10055000EF92FF920F931F93CF93DF93CDB7DEB748
:1005600065970FB6F894DEBF0FBECDBF6C016091EA
:100570002706623010F480E08AC0462F50E04150D8
:10058000510980912A0690912B0625E0249FF001C5
:10059000259FF00D1124E250FA4F228133818217FA
:1005A000930749F32817390728F4DC01A21BB30B82
:1005B0009D0102C0281B390B2E313105E0F210924B
:1005C0002706FA01E651FA4F84858130A1F6309171
:1005D00026064AEE55E0CE010196B5E06B9FF0018C
:1005E0001124E651FA4F20E08C01311106C0DA01E6
:1005F0005696ED90FC90579702C0E188F288DC0196
:10060000ED92FC922F5F4B5F5F4F0296359762131E
:10061000ECCF80E090E0292F30E041E1E42EF12C96
:10062000EC0EFD1EE80EF11CA9014F5F5F4F440F59
:10063000551F400F511F220F331FF801E20FF31F08
:10064000DA012C913081231BF70120838F5F9E5F9D
:10065000961708F32D8929892750233058F4FE0175
:10066000729691E0981730F421912350233010F4C2
:100670009F5FF8CF29813A81981305C0D6012D9349
:100680003C93892F04C0F6013183208381E0659675
:100690000FB6F894DEBF0FBECDBFDF91CF911F9193
:1006A0000F91FF90EF90DF90CF9008951092EF059B
:1006B0001092EE051092F1051092F0051092F305DC
:1006C0001092F2051092F5051092F4051092EB05C8
:1006D0001092EA0588E790E00E944B099093ED059F
:1006E0008093EC05892BC9F461E08DE00E948F08AE
:1006F00061E08DE00E94CB086AEF70E080E090E05E
:100700000E94EF0760E08DE00E94CB086AEF70E086
:1007100080E090E00E94EF07EBCF84E190E09093BF
:10072000EF058093EE0508958091EC059091ED051D
:100730000C94E309009711F00E941F0761E08DE01F
:100740000E948F0861E08DE00E94CB086AEF70E0A4
:1007500080E090E00E94EF0760E08DE00E94CB080F
:100760006AEF70E080E090E00E94EF07EBCF8DE24F
:1007700096E09093EB058093EA0526E040E052EC8A
:1007800061E070E00E94D8056AEF73E084E895E0CC
:100790000E946C0A64E875E08DE296E00C941F07F5
:1007A000BF92CF92DF92EF92FF920F931F93CF935E
:1007B000DF93EC018B01161617061CF06CE474E055
:1007C0000EC086E0282F269FC001279F900D112480
:1007D0000E944B097C01009731F461E874E0888144
:1007E00099810E949A036C0120E030E086E0B82EE7
:1007F0008E819F81EA81FB8128173907DCF4888587
:100800009985820F931F6C817D810E94FB08B89EA1
:10081000A001B99E500D1124E40FF51FD6018B2DB8
:1008200001900D928A95E1F72F5F3F4F86E0C80E49
:10083000D11CDECFCF010E94E309FB82EA82198638
:1008400018868E819F819B878A871D830C83DF9109
:10085000CF911F910F91FF90EF90DF90CF90BF90BD
:100860000895EF92FF920F931F93CF93DF93CDB72D
:10087000DEB72C970FB6F894DEBF0FBECDBFDC01FC
:1008800016962D913C9117972115310531F46BEB9C
:1008900074E08D919C910E949A03FC01E280F380A8
:1008A000A085B1858D010F5F1F4F1187008746E03E
:1008B0004A9FB0014B9F700D1124F701E60FF71FFF
:1008C000DE01179601900D924A95E1F7215031090A
:1008D000DC0117963C932E93169714966D917C919C
:1008E00015970617170721F419961C921E92189750
:1008F00021153105A1F0AB0177FF02C04D5F5F4FBD
:1009000055954795559547954217530744F077FFFE
:1009100002C06F5F7F4F759567950E94D00386E098
:10092000FE013796DE01119601900D928A95E1F74E
:1009300029813A814B815C816D817E8180E090E0EC
:100940002C960FB6F894DEBF0FBECDBFDF91CF91CE
:100950001F910F91FF90EF900895CF93DF93CDB744
:10096000DEB764970FB6F894DEBF0FBECDBF80919F
:10097000F0059091F105892B61F18091F00590913E
:10098000F105892B31F18AEE95E00E94310429832B
:100990003A834B835C836D837E8386E0FE013196D0
:1009A000DE01179601900D928A95E1F789818F8378
:1009B00096E0FE013796DE011D9601900D929A9504
:1009C000E1F72E853F85488959896A890E94CC00C4
:1009D000D4CFCE0143960E94A602882321F06B89D2
:1009E0007C890E94950164960FB6F894DEBF0FBE15
:1009F000CDBFDF91CF910895FC01918D228D892F7C
:100A000090E0805C9F4F821B91098F739927089516
:100A1000FC01918D828D981731F0828DE80FF11DC8
:100A2000858D90E008958FEF9FEF0895FC01918DE3
:100A3000828D981761F0828DDF01A80FB11D5D9640
:100A40008C91928D9F5F9F73928F90E008958FEFAE
:100A50009FEF0895FC01538D448D252F30E0842FA6
:100A600090E0821B930B541710F0CF9608950197D6
:100A7000089585E996E0892B49F080E090E0892B84
:100A800029F00E94950681110C9400000895FC0144
:100A9000848DDF01A80FB11DA35ABF4F2C91848D07
:100AA00090E001968F739927848FA689B7892C933C
:100AB000A089B1898C91837080648C93938D848D8F
:100AC000981306C00288F389E02D80818F7D808392
:100AD0000895EF92FF920F931F93CF93DF93EC0152
:100AE00081E0888F9B8D8C8D981305C0E889F989EA
:100AF000808185FD26C0F62E0B8D10E00F5F1F4F05
:100B00000F731127E02E8C8DE8120CC00FB607FC76
:100B1000FACFE889F989808185FFF5CFCE010E945F
:100B20004705F1CF8B8DFE01E80FF11DE35AFF4F12
:100B3000F0829FB7F8940B8FEA89FB8980818062ED
:100B40000AC09FB7F894EE89FF896083E889F98924
:100B500080818370806480839FBF81E090E0DF911B
:100B6000CF911F910F91FF90EF900895CF93DF9356
:100B7000EC01888D8823C9F0EA89FB89808185FD95
:100B800005C0A889B9898C9186FD0FC00FB607FCF6
:100B9000F5CF808185FFF2CFA889B9898C9185FF37
:100BA000EDCFCE010E944705E7CFDF91CF910895A9
:100BB000CF92DF92EF92FF921F93CF93DF93EC01DE
:100BC0006A017B01122FE889F98982E0808341154F
:100BD000514E61057105B1F060E079E08DE390E080
:100BE000A70196010E940F09DA01C9010197A10925
:100BF000B109B695A795979587959C01211580E138
:100C00003807A8F0E889F989108260E874E88EE175
:100C100090E0A70196010E940F09DA01C90101972E
:100C2000A109B109B695A795979587959C01EC8583
:100C3000FD853083EE85FF852083188EEC89FD8944
:100C40001083EA89FB89808180618083EA89FB893E
:100C5000808188608083EA89FB89808180688083C5
:100C6000EA89FB8980818F7D8083DF91CF911F91FD
:100C7000FF90EF90DF90CF9008951F920F920FB6E4
:100C80000F9211242F938F939F93EF93FF93E091F3
:100C90003D06F0913E068081E0914306F0914406C6
:100CA00082FD12C09081809146068F5F8F732091E4
:100CB0004706821751F0E0914606F0E0E35DF94FF8
:100CC000958F8093460601C08081FF91EF919F919F
:100CD0008F912F910F900FBE0F901F9018951F921C
:100CE0000F920FB60F9211242F933F934F935F9360
:100CF0006F937F938F939F93AF93BF93EF93FF93E4
:100D00008DE296E00E944705FF91EF91BF91AF9170
:100D10009F918F917F916F915F914F913F912F9113
:100D20000F900FBE0F901F9018958DE296E00E94D5
:100D3000FC0421E0892B09F420E0822F0895EDE2E4
:100D4000F6E01382128288EE93E0A0E0B0E08483A4
:100D50009583A683B78385E695E09183808385ECB0
:100D600090E09587848784EC90E09787868780EC75
:100D700090E0918B808B81EC90E0938B828B82EC66
:100D800090E0958B848B86EC90E0978B868B118E10
:100D9000128E138E148E089508950E942B080E94BF
:100DA000CC060E94B703C9E3D5E00E94AD042097AA
:100DB000E1F30E943905F9CFCF92DF92EF92FF92D3
:100DC0000F931F93CF93DF936C017A018B01C0E0E7
:100DD000D0E0CE15DF0581F0D8016D918D01D601EF
:100DE000ED91FC910190F081E02DC6010995892BD0
:100DF00011F02196EECF7E01C701DF91CF911F91B7
:100E00000F91FF90EF90DF90CF90089561157105DD
:100E100079F0FB0101900020E9F73197AF01461B03
:100E2000570BDC01ED91FC910280F381E02D0994D8
:100E300080E090E0089563E775E00C9406070F9357
:100E40001F93CF93DF93EC010E9406078C01CE0124
:100E50000E941B07800F911FDF91CF911F910F916F
:100E6000089508951F920F920FB60F9211242F9399
:100E70003F934F935F936F937F938F939F93AF9322
:100E8000BF93EF93FF93E0910601F091070109955D
:100E9000FF91EF91BF91AF919F918F917F916F9152
:100EA0005F914F913F912F910F900FBE0F901F9028
:100EB00018951F920F920FB60F9211242F933F9304
:100EC0004F935F936F937F938F939F93AF93BF9352
:100ED000EF93FF93E0910801F09109010995FF91CB
:100EE000EF91BF91AF919F918F917F916F915F91A2
:100EF0004F913F912F910F900FBE0F901F9018951B
:100F00001F920F920FB60F9211242F933F938F933E
:100F10009F93AF93BF938091CB069091CC06A09105
:100F2000CD06B091CE063091CA0623E0230F2D37AF
:100F300020F40196A11DB11D05C026E8230F0296DD
:100F4000A11DB11D2093CA068093CB069093CC06B9
:100F5000A093CD06B093CE068091CF069091D00697
:100F6000A091D106B091D2060196A11DB11D80932A
:100F7000CF069093D006A093D106B093D206BF912E
:100F8000AF919F918F913F912F910F900FBE0F9036
:100F90001F9018953FB7F8948091CF069091D00696
:100FA000A091D106B091D20626B5A89B05C02F3FCF
:100FB00019F00196A11DB11D3FBFBA2FA92F982F7F
:100FC0008827820F911DA11DB11DBC01CD0142E0FA
:100FD000660F771F881F991F4A95D1F708958F9242
:100FE0009F92AF92BF92CF92DF92EF92FF926B01EE
:100FF0007C010E94CA074B015C01C114D104E104C9
:10100000F10401F10E94FA080E94CA07DC01CB0139
:1010100088199909AA09BB09883E9340A105B10521
:1010200060F321E0C21AD108E108F10888EE880EC9
:1010300083E0981EA11CB11CC114D104E104F10489
:1010400019F7DBCFFF90EF90DF90CF90BF90AF907C
:101050009F908F900895789484B5826084BD84B504
:10106000816084BD85B5826085BD85B5816085BDA3
:10107000EEE6F0E0808181608083E1E8F0E01082BC
:10108000808182608083808181608083E0E8F0E0FD
:10109000808181608083E1EBF0E0808184608083E7
:1010A000E0EBF0E0808181608083EAE7F0E080811E
:1010B000846080838081826080838081816080837E
:1010C0008081806880831092C1000895833081F010
:1010D00028F4813099F08230A1F008958730A9F08A
:1010E0008830B9F08430D1F4809180008F7D03C0C6
:1010F000809180008F7780938000089584B58F77EA
:1011000002C084B58F7D84BD08958091B0008F7733
:1011100003C08091B0008F7D8093B0000895CF937D
:10112000DF9390E0FC01E458FF4F2491FC01E0576D
:10113000FF4F8491882361F190E0880F991FFC0193
:10114000E255FF4FC591D491FC01EC55FF4FA5919D
:10115000B491611109C09FB7F894888120958223CA
:101160008883EC912E230BC0623061F49FB7F89412
:101170008881322F309583238883EC912E2B2C93FA
:101180009FBF06C08FB7F894E8812E2B28838FBFAE
:10119000DF91CF9108951F93CF93DF93282F30E0F5
:1011A000F901E859FF4F8491F901E458FF4FD491B8
:1011B000F901E057FF4FC491CC23C1F0162F8111E4
:1011C0000E946608EC2FF0E0EE0FFF1FEC55FF4F7A
:1011D000A591B4919FB7F894111104C08C91D0954A
:1011E000D82302C0EC91DE2BDC939FBFDF91CF911F
:1011F0001F910895089597FB072E16F4009407D0C9
:1012000077FD09D00E94310907FC05D03EF4909586
:1012100081959F4F0895709561957F4F0895A1E244
:101220001A2EAA1BBB1BFD010DC0AA1FBB1FEE1F60
:10123000FF1FA217B307E407F50720F0A21BB30BAB
:10124000E40BF50B661F771F881F991F1A9469F727
:1012500060957095809590959B01AC01BD01CF0183
:101260000895AA1BBB1B51E107C0AA1FBB1FA617ED
:10127000B70710F0A61BB70B881F991F5A95A9F73F
:1012800080959095BC01CD010895EE0FFF1F05904C
:10129000F491E02D09940F931F93CF93DF93823045
:1012A000910510F482E090E0E091D506F091D60629
:1012B00020E030E0A0E0B0E0309719F140815181AA
:1012C0000281138148175907C8F08417950769F4FC
:1012D000109731F012960C93129713961C9327C017
:1012E0000093D5061093D60622C02115310519F0BA
:1012F0004217530718F49A01BD01EF01DF01F8010D
:10130000DBCF21153105F9F0281B390B24303105CD
:1013100080F48A819B816115710521F0FB01938323
:10132000828304C09093D6068093D506FE01329640
:1013300044C0FE01E20FF31F8193919322503109C3
:10134000398328833AC02091D3063091D406232BC9
:1013500041F420910201309103013093D40620938F
:10136000D30620910001309101012115310541F48E
:101370002DB73EB74091040150910501241B350B58
:10138000E091D306F091D406E217F307A0F42E1BE8
:101390003F0B2817390778F0AC014E5F5F4F2417D9
:1013A000350748F04E0F5F1F5093D4064093D30685
:1013B0008193919302C0E0E0F0E0CF01DF91CF9103
:1013C0001F910F910895CF93DF93009709F481C087
:1013D000FC01329713821282A091D506B091D606F5
:1013E000109781F420813181820F931F2091D306C1
:1013F0003091D4062817390751F5F093D406E093BD
:10140000D30667C0ED0120E030E0CE17DF0740F4DF
:101410004A815B819E0141155105F1F0EA01F5CF4A
:10142000D383C28340815181840F951FC817D90788
:1014300059F488819981840F951F02969183808346
:101440008A819B81938382832115310529F4F0934E
:10145000D606E093D5063DC0E901FB83EA834991B6
:101460005991C40FD51FEC17FD0761F4808191815C
:10147000840F951F0296E901998388838281938165
:101480009B838A83E0E0F0E012968D919C91139704
:10149000009719F0FD01DC01F7CF8D919C91119718
:1014A0009D012E5F3F4F820F931F2091D3063091F5
:1014B000D4062817390769F4309729F41092D60614
:1014C0001092D50602C013821282B093D406A09364
:1014D000D306DF91CF910895FB01DC0101900D92BD
:1014E0000020E1F70895AEE0B0E0E9E7FAE00C94FF
:1014F000340D0D891E8986E08C831A8309838FEF52
:101500009FE79E838D83AE01475E5F4F6F89788D25
:10151000CE0101960E94950AEF81F885E00FF11F38
:1015200010822E96E4E00C94500DABE0B0E0EBE9B5
:10153000FAE00C94260D6C017B018A01FC011782F4
:101540001682838181FFCCC1CE0101963C01F60158
:101550009381F70193FD859193FF81917F0188230A
:1015600009F4BAC1853239F493FD859193FF8191D5
:101570007F01853229F4B60190E00E948C0CE7CF00
:10158000912C212C312CFFE1F315D8F08B3279F01E
:1015900038F4803279F08332A1F4232D20611DC00C
:1015A0008D3261F0803369F4232D216016C0832DC4
:1015B0008260382EE32DE4603E2E2AC0F32DF860C1
:1015C0001DC037FC2DC020ED280F2A3040F08E3290
:1015D000B9F436FC81C1232D2064322E19C036FEA9
:1015E00006C08AE0989E200D1124922E11C0EAE0D8
:1015F0002E9E200D1124222EF32DF0623F2E08C0C6
:101600008C3621F4832D8068382E02C0883641F450
:10161000F70193FD859193FF81917F018111B3CFF4
:10162000982F9F7D9554933028F40C5F1F4F9FE3B4
:1016300099830DC0833631F0833771F0833509F01B
:1016400059C021C0F801808189830E5F1F4F882413
:101650008394912C530113C02801F2E04F0E511CCA
:10166000F801A080B18036FE03C0692D70E002C091
:101670006FEF7FEFC5010E94810C4C018201F32DB9
:10168000FF773F2E16C0280122E0420E511CF801C0
:10169000A080B18036FE03C0692D70E002C06FEFFC
:1016A0007FEFC5010E94760C4C01F32DF0683F2EB0
:1016B000820133FC1BC0822D90E088169906B0F49D
:1016C000B60180E290E00E948C0C2A94F4CFF501E0
:1016D00037FC859137FE81915F01B60190E00E9451
:1016E0008C0C21102A9421E0821A91088114910413
:1016F00071F7E8C0843611F0893641F5F80137FEFC
:1017000007C060817181828193810C5F1F4F08C087
:1017100060817181072E000C880B990B0E5F1F4FA3
:10172000F32DFF763F2E97FF09C090958095709519
:1017300061957F4F8F4F9F4FF0683F2E2AE030E03A
:10174000A3010E94C80C882E861845C0853731F445
:10175000232D2F7EB22E2AE030E025C0932D997FD5
:10176000B92E8F36C1F018F4883579F0B5C08037BE
:1017700019F0883721F0B0C0E92FE061BE2EB4FE29
:101780000DC0FB2DF460BF2E09C034FE0AC0292F06
:101790002660B22E06C028E030E005C020E130E02F
:1017A00002C020E132E0F801B7FE07C0608171811C
:1017B000828193810C5F1F4F06C06081718180E040
:1017C00090E00E5F1F4FA3010E94C80C882E861860
:1017D000FB2DFF773F2E36FE0DC0232D2E7FA22E30
:1017E000891458F434FE0BC032FC09C0832D8E7E60
:1017F000A82E05C0B82CA32C03C0B82C01C0B92C4E
:10180000A4FE0FC0FE01E80DF11D8081803321F49C
:101810009A2D997EA92E09C0A2FE06C0B394B39456
:1018200004C08A2D867809F0B394A3FC11C0A0FEF1
:1018300006C0B21488F4280C922C9B180EC0B21467
:1018400060F4B60180E290E00E948C0CB394F7CF74
:10185000B21418F42B1802C0982C212CA4FE10C02E
:10186000B60180E390E00E948C0CA2FE17C0A1FCA0
:1018700003C088E790E002C088E590E0B6010CC0A4
:101880008A2D867859F0A1FE02C08BE201C080E269
:10189000A7FC8DE2B60190E00E948C0C891438F40C
:1018A000B60180E390E00E948C0C9A94F7CF8A9462
:1018B000F301E80DF11D8081B60190E00E948C0CCF
:1018C0008110F5CF222009F442CEB60180E290E0EB
:1018D0000E948C0C2A94F6CFF6018681978102C073
:1018E0008FEF9FEF2B96E2E10C94420DFC010590E7
:1018F000615070400110D8F7809590958E0F9F1F12
:101900000895FC016150704001900110D8F7809556
:1019100090958E0F9F1F08950F931F93CF93DF9382
:10192000FB01238121FD03C08FEF9FEF2CC022FF1D
:1019300016C046815781248135814217530744F4EC
:10194000A081B1819D012F5F3F4F318320838C9314
:10195000268137812F5F3F4F3783268314C08B0149
:10196000EC01FB010084F185E02D0995892BE1F65E
:10197000D80116968D919C911797019617969C9376
:101980008E931697CE01DF91CF911F910F910895FD
:10199000FA01AA27283051F1203181F1E8946F93A0
:1019A0006E7F6E5F7F4F8F4F9F4FAF4FB1E03ED046
:1019B000B4E03CD0670F781F891F9A1FA11D680FE4
:1019C000791F8A1F911DA11D6A0F711D811D911D17
:1019D000A11D20D009F468943F912AE0269F11248C
:1019E0003019305D3193DEF6CF010895462F4770F0
:1019F000405D4193B3E00FD0C9F7F6CF462F4F704B
:101A0000405D4A3318F0495D31FD4052419302D0A8
:101A1000A9F7EACFB4E0A69597958795779567954E
:101A2000BA95C9F700976105710508959B01AC014E
:101A30000A2E06945795479537952795BA95C9F775
:101A4000620F731F841F951FA01D08952F923F9250
:101A50004F925F926F927F928F929F92AF92BF92BE
:101A6000CF92DF92EF92FF920F931F93CF93DF936A
:101A7000CDB7DEB7CA1BDB0B0FB6F894DEBF0FBEC7
:101A8000CDBF09942A88398848885F846E847D8414
:101A90008C849B84AA84B984C884DF80EE80FD8016
:101AA0000C811B81AA81B981CE0FD11D0FB6F8948C
:101AB000DEBF0FBECDBFED01089510E0CEE5D0E052
:101AC00004C0FE010E9445092196CF35D107C9F710
:041AD000F894FFCFB8
:101AD4000000D7062000310731075761726E696E26
:101AE4006720776520646574656374206120736181
:101AF4006D652064697374616E636520666F72201E
:101B040061206120646966666572656E74206C612B
:101B14006E646D61726B003E3E3E3E4552524F52C2
:101B2400204C616E646D61726B203D203120284928
:101B34007420636F756C6420626520746865206628
:101B440069727374206C616E646D61726B2072656E
:101B54006164656E2062792074686520737973749A
:101B6400656D2920003E3E3E3E4552524F52204C68
:101B7400616E646D61726B203D2032202872656154
:101B840064446972656374696F6E2920003E3E3E49
:101B94003E4552524F52204C616E646D61726B200F
:101BA4003D20332028626172206C656E6774682062
:101BB4006973206E6F7420636F7272656374202979
:101BC400004C414E444D41524B5F4142534F4C55A2
:101BD40054455F30203A204C616E646D61726B50E5
:101BE4006F736974696F6E203D202568752C0941F7
:101BF40042534F4C5554455F305F504F53495449FD
:101C04004F4E3D2568752C09475F4C696E65506FD2
:101C1400736974696F6E3D25687509004C414E44C3
:101C24004D41524B5F4142534F4C5554455F312017
:101C34003A204C616E646D61726B506F73697469A4
:101C44006F6E203D202568752C094142534F4C5539
:101C540054455F315F504F534954494F4E3D2568B9
:101C6400752C09475F4C696E65506F736974696FB1
:101C74006E3D256875004C414E444D41524B5F41C9
:101C840042534F4C5554455F32203A204C616E64A8
:101C94006D61726B506F736974696F6E203D20259E
:101CA40068752C094142534F4C5554455F305F5081
:101CB4004F534954494F4E3D2568752C09475F4C95
:101CC400696E65506F736974696F6E3D2568750040
:101CD40041636365707461626C6520446966662063
:101CE4003A2044696666203D202568752C092050F9
:101CF4007265496E637265506F736974696F6E2B98
:101D0400494E4352454D454E54414C5F444953540A
:101D1400414E43453D2568752C09204C616E646D28
:101D240061726B506F736974696F6E3D25687500DD
:101D34004572726F72204269672044696666203A70
:101D44002044696666203D202568752C0920507260
:101D540065496E637265506F736974696F6E2B4960
:101D64004E4352454D454E54414C5F4449535441B2
:101D74004E43453D2568752C09204C616E646D61A8
:101D8400726B506F736974696F6E3D256875003DA1
:101D94003E204241445F4C494E455F504F534954A5
:101DA400494F4E0043616E6E6F7420496E637472C6
:101DB400656D656E742069742773206120626164A7
:101DC40020706F736974696F6E002A2A2A20537415
:101DD400617274696E67204C616E646D61726B2010
:101DE4005265616465722070726F7267616D202A3A
:101DF4002A2A0A2A2A2A2A2A2A2A2A2A2A2A2A2A5F
:101E04002A2A2A2A2A2A2A2A2A2A2A2A2A2A2A2A2E
:101E14002A2A2A2A2A2A2A2A2A2A2A0051554555B0
:101E2400453A206572726F722064756520746F2064
:101E3400756E646573697261626C652073697A6535
:101E440020666F722071756575652073697A652ED9
:101E54000051554555453A20696E73756666696348
:101E640069656E74206D656D6F727920746F206979
:101E74006E697469616C697A652074656D706F72DE
:101E84006172792071756575652E0051554555450A
:101E94003A2063616E277420706F70206974656DD9
:101EA4002066726F6D2071756575653A2071756570
:101EB400756520697320656D7074792E000A0A2097
:101EC400726573756C74204C616E646D61726B49DC
:101ED40064203D256420204C616E646D61726B50FA
:101EE4006F736974696F6E203D256875200A000A56
:101EF4000A204265666F72203A20475F4C696E651E
:101F0400506F736974696F6E203D256875200A00EF
:101F14000A0A204166746572203A20475F4C696E54
:101F240065506F736974696F6E203D256875200A6A
:101F340000000000006905DC062A05B605FC04164D
:101F44000508050D0A006E616E00696E66006F7605
:021F5400660025
:00000001FF
