S01A00004C696E65506F736974696F6E53797374656D2E73726563A8
S11300000C945F000C9415070C943C070C94870027
S11300100C9487000C9487000C9487000C94870040
S11300200C9487000C9487000C9487000C94870030
S11300300C9487000C9487000C9487000C94870020
S11300400C9463070C9487000C9420060C945206BD
S11300500C9487000C9487000C9487000C94870000
S11300600C9487000C948700000000080002010033
S1130070000304070000000000000000010204085F
S113008010204080010204081020010204081020FE
S1130090040404040404040402020202020203032A
S11300A00303030300000000250028002B000000C8
S11300B00000240027002A0056038206940311241A
S11300C01FBECFEFD8E0DEBFCDBF14E0A0E0B1E0AB
S11300D0EAE9FAE102C005900D92AC3DB107D9F707
S11300E026E0ACEDB4E001C01D92A133B207E1F704
S11300F010E0CEE5D0E004C02197FE010E9428095B
S1130100CC35D107C9F70E94B0060C94400D0C946D
S11301100000EF92FF920F931F93CF93DF93CDB71D
S1130120DEB72A970FB6F894DEBF0FBECDBF498362
S11301305A836B837C83EE82FF82088719872B8125
S11301403C81888599852817390799F429813A8152
S11301508E819F8111E02817390708F010E02817D5
S1130160390761F46AE071E087E895E00E940207CC
S113017005C011E08217930708F410E0812F2A9636
S11301800FB6F894DEBF0FBECDBFDF91CF911F91A4
S11301900F91FF90EF9008957F928F929F92AF926C
S11301A0BF92CF92DF92EF92FF920F931F93CF9360
S11301B0DF9300D000D01F92CDB7DEB7882E2983FD
S11301C03A834B835C836D8390908105911017C0B3
S11301D081110EC01092500585E0FE013196A8E50C
S11301E0B5E001900D928A95E1F79924939488C023
S11301F067E471E087E895E00E94020781C0C92C9A
S1130200D12C560141E0A41AB1082B813C8185E030
S11302108A9DF0018B9DF00D1124E85AFA4F8281DA
S113022093812817390759F08217930728F4A901F5
S1130230481B590BCA0105C0821B930B02C080E006
S113024090E09C01235031092330310520F00797B9
S1130250039708F04BC051E0951216C085E08A9DC3
S1130260F0018B9DF00D1124E85AFA4FE080F180E3
S113027002811381248149815A816B817C818D8122
S11302800E9489008093800585E0782E7A9CF00195
S11302907B9CF00D1124E85AFA4FE080F180028132
S11302A01381248149815A816B817C818D810E94D3
S11302B0890090918005891316C0F601EC5BFA4F12
S11302C084867C9CD0017D9CB00D1124A85ABA4F21
S11302D085E0FE01319601900D928A95E1F79394A1
S11302E091100EC009C065E971E002C06DEB71E0C8
S11302F087E895E00E940207882009F46BCF912CCF
S1130300909281050F900F900F900F900F90DF91B6
S1130310CF911F910F91FF90EF90DF90CF90BF90FE
S1130320AF909F908F907F900895CF93DF93EB01D0
S11303308330A1F120F4813008F084C004C18430FA
S113034009F455C0853009F0FEC020918405309130
S11303508505205E314B261B370B309343052093D4
S113036042057093DD046093DC043F932F931F9246
S11303708F93DF936F9386EA92E09F938F938EED32
S113038094E09F938F930E94560A8DB79EB70A9666
S11303900FB6F8949EBF0FBE8DBF51C080918405E7
S11303A0909185054496861B970B90934305809303
S11303B042057093DD046093DC049F938F931F9236
S11303C084E18F93DF936F9381EF91E09F938F93F9
S11303D08EED94E09F938F930E94560A8DB79EB73B
S11303E00A960FB6F8949EBF0FBE8DBF28C0209109
S11303F0840530918505205F384D261B370B3093DB
S11304004305209342057093DD046093DC043F931D
S11304102F931F928F93DF936F938CE492E09F93BB
S11304208F938EED94E09F938F930E94560A8DB71D
S11304309EB70A960FB6F8949EBF0FBE8DBF6EEDA1
S113044074E07BC08091420590914305892B09F4A7
S113045072C08091DC049091DD049C0128513C4FD2
S11304606217730720F4C901861B970B06C0AB0102
S1130470481B590BCA01885E934082339105B0F53D
S1130480DF93CF933F932F939F938F9380E093E0D9
S11304909F938F938EED94E09F938F930E94560ABF
S11304A06EED74E087E895E00E9402072091DC0479
S11304B03091DD048091840590918505820F931F0E
S11304C002968C1B9D0B90934305809342052E5FEF
S11304D03F4F3093DD042093DC048DB79EB70A961A
S11304E00FB6F8949EBF0FBE8DBF2DC0109243056A
S11304F010924205DF93CF933F932F939F938F9353
S113050080E693E09F938F938EED94E09F938F9377
S11305100E94560A6EED74E087E895E00E94020797
S11305208DB79EB70A960FB6F8949EBF0FBE8DBFC7
S11305306FEB73E002C064ED73E087E895E0DF9150
S1130540CF910C940207DF91CF910895CF92DF925F
S1130550EF92FF920F931F93CF93DF93CDB7DEB744
S113056065970FB6F894DEBF0FBECDBF6C016091E6
S11305708105623010F480E08AC0462F50E041507B
S11305805109809184059091850525E0249FF0010F
S1130590259FF00D1124E85AFA4F228133818217E6
S11305A0930749F32817390728F4DC01A21BB30B7E
S11305B09D0102C0281B390B2E313105E0F2109247
S11305C08105FA01EC5BFA4F84858130A1F6309104
S11305D0800544E455E0CE010196B5E06B9FF0013F
S11305E01124EC5BFA4F20E08C01311106C0DA01D2
S11305F05696ED90FC90579702C0E188F288DC0192
S1130600ED92FC922F5F4B5F5F4F0296359762131A
S1130610ECCF80E090E0292F30E041E1E42EF12C92
S1130620EC0EFD1EE80EF11CA9014F5F5F4F440F55
S1130630551F400F511F220F331FF801E20FF31F04
S1130640DA012C913081231BF70120838F5F9E5F99
S1130650961708F32D8929892750233058F4FE0171
S1130660729691E0981730F421912350233010F4BE
S11306709F5FF8CF29813A81981305C0D6012D9345
S11306803C93892F04C0F6013183208381E0659671
S11306900FB6F894DEBF0FBECDBFDF91CF911F918F
S11306A00F91FF90EF90DF90CF900895109249053D
S11306B01092480510924B0510924A0510924D0570
S11306C010924C0510924F0510924E05109245055C
S11306D01092440588E790E00E942E099093470504
S11306E080934605892BC9F461E08DE00E9472086D
S11306F061E08DE00E94AE086AEF70E080E090E077
S11307000E94D20760E08DE00E94AE086AEF70E0BC
S113071080E090E00E94D207EBCF84E190E09093D8
S113072049058093480508958091460590914705B1
S11307300C94C609009711F00E94020761E08DE055
S11307400E94720861E08DE00E94AE086AEF70E0DA
S113075080E090E00E94D20760E08DE00E94AE0845
S11307606AEF70E080E090E00E94D207EBCF87E868
S113077095E0909345058093440526E040E052ECD3
S113078061E070E00E94BB056AEF73E08EED94E0D7
S11307900E944F0A6EED74E087E895E00C9402071E
S11307A05F926F927F928F929F92AF92BF92CF92FD
S11307B0DF92EF92FF920F931F93CF93DF93CDB706
S11307C0DEB76E970FB6F894DEBF0FBECDBF809133
S11307D04A0590914B05892B09F48CC036E0532EC1
S11307E0E0904A05F0904B05E114F10409F482C04D
S11307F0C0904605D090470520914C0530914D0599
S1130800C901019690934D0580934C05529EF001C9
S1130810539EF00D1124EC0DFD1DDE011796252DC0
S113082001900D922A95E1F721E0E21AF108F09285
S11308304B05E0924A05009148051091490580173F
S1130840910721F410924D0510924C05E114F10426
S113085019F1C80117FD0396959587959595879588
S11308608E159F050CF052C017C0C6010E94C60920
S1130870B0924705A092460510924D0510924C0582
S113088080914A0590914B0590934F0580934E05B6
S1130890709249056092480586E0FE013796DE01B4
S11308A0119601900D928A95E1F786E0FE0131964A
S11308B0DE011D9601900D928A95E1F786E0FE0116
S11308C03D96DE01539601900D928A95E1F78D8550
S11308D08B8B96E0FE017396DE01599601900D9282
S11308E09A95E1F72A8D3B8D4C8D5D8D6E8D0E941E
S11308F0CC0076CFCE0107960E94A602882309F485
S113090048C06F8178850E94950143C0380117FF64
S113091003C02FEF621A720A7594679416141704B1
S11309201CF06CE474E00CC0569CC001579C900D04
S113093011240E942E095C01009741F461E874E0DF
S113094080914405909145050E949A034C0120E052
S113095030E02E153F050CF088CF80914C05909126
S11309604D05820F931FB8010E94DE08589EF001C6
S1130970599EF00D1124EC0DFD1DD401852D01901F
S11309800D928A95E1F72F5F3F4F86E0880E911C08
S1130990E0CF6E960FB6F894DEBF0FBECDBFDF91E9
S11309A0CF911F910F91FF90EF90DF90CF90BF9068
S11309B0AF909F908F907F906F905F900895FC010F
S11309C0918D228D892F90E0805C9F4F821B91092D
S11309D08F7399270895FC01918D828D981731F0BA
S11309E0828DE80FF11D858D90E008958FEF9FEFC4
S11309F00895FC01918D828D981761F0828DDF013D
S1130A00A80FB11D5D968C91928D9F5F9F73928FFD
S1130A1090E008958FEF9FEF0895FC01538D448D6E
S1130A20252F30E0842F90E0821B930B541710F095
S1130A30CF9608950197089588E796E0892B49F0A9
S1130A4080E090E0892B29F00E94780681110C94B3
S1130A5000000895FC01848DDF01A80FB11DA35A85
S1130A60BF4F2C91848D90E001968F739927848FCA
S1130A70A689B7892C93A089B1898C9183708064ED
S1130A808C93938D848D981306C00288F389E02D8E
S1130A9080818F7D80830895EF92FF920F931F933F
S1130AA0CF93DF93EC0181E0888F9B8D8C8D98131D
S1130AB005C0E889F989808185FD26C0F62E0B8D55
S1130AC010E00F5F1F4F0F731127E02E8C8DE8127B
S1130AD00CC00FB607FCFACFE889F989808185FF3D
S1130AE0F5CFCE010E942A05F1CF8B8DFE01E80FD0
S1130AF0F11DE35AFF4FF0829FB7F8940B8FEA89F8
S1130B00FB89808180620AC09FB7F894EE89FF89CF
S1130B106083E889F98980818370806480839FBFC2
S1130B2081E090E0DF91CF911F910F91FF90EF90C2
S1130B300895CF93DF93EC01888D8823C9F0EA8967
S1130B40FB89808185FD05C0A889B9898C9186FDC2
S1130B500FC00FB607FCF5CF808185FFF2CFA889BF
S1130B60B9898C9185FFEDCFCE010E942A05E7CF8C
S1130B70DF91CF910895CF92DF92EF92FF921F936E
S1130B80CF93DF93EC016A017B01122FE889F98985
S1130B9082E080834115514E61057105B1F060E03A
S1130BA079E08DE390E0A70196010E94F208DA0152
S1130BB0C9010197A109B109B695A795979587959C
S1130BC09C01211580E13807A8F0E889F989108291
S1130BD060E874E88EE190E0A70196010E94F208B3
S1130BE0DA01C9010197A109B109B695A7959795AD
S1130BF087959C01EC85FD853083EE85FF852083F8
S1130C00188EEC89FD891083EA89FB8980818061D3
S1130C108083EA89FB89808188608083EA89FB89F3
S1130C20808180688083EA89FB8980818F7D8083CD
S1130C30DF91CF911F91FF90EF90DF90CF900895B7
S1130C401F920F920FB60F9211242F938F939F939D
S1130C50EF93FF93E0919705F09198058081E091DF
S1130C609D05F0919E0582FD12C090818091A005A2
S1130C708F5F8F732091A105821751F0E091A00539
S1130C80F0E0E957FA4F958F8093A00501C0808169
S1130C90FF91EF919F918F912F910F900FBE0F9025
S1130CA01F9018951F920F920FB60F9211242F9335
S1130CB03F934F935F936F937F938F939F93AF93E0
S1130CC0BF93EF93FF9387E895E00E942A05FF9175
S1130CD0EF91BF91AF919F918F917F916F915F91B0
S1130CE04F913F912F910F900FBE0F901F90189529
S1130CF087E895E00E94DF0421E0892B09F420E0D5
S1130D00822F0895E7E8F5E01382128288EE93E0DB
S1130D10A0E0B0E084839583A683B7838FEB94E04F
S1130D209183808385EC90E09587848784EC90E0C0
S1130D309787868780EC90E0918B808B81EC90E0A4
S1130D40938B828B82EC90E0958B848B86EC90E085
S1130D50978B868B118E128E138E148E08950895A0
S1130D600E940E080E94AF060E94B703CCE1D5E0B2
S1130D700E94D0032097E1F30E941C05F9CFCF9283
S1130D80DF92EF92FF920F931F93CF93DF936C0147
S1130D907A018B01C0E0D0E0CE15DF0581F0D801E7
S1130DA06D918D01D601ED91FC910190F081E02DC2
S1130DB0C6010995892B11F02196EECF7E01C7015A
S1130DC0DF91CF911F910F91FF90EF90DF90CF9023
S1130DD008956115710579F0FB0101900020E9F790
S1130DE03197AF01461B570BDC01ED91FC9102805A
S1130DF0F381E02D099480E090E008956DEC74E0B7
S1130E000C94E9060F931F93CF93DF93EC010E9498
S1130E10E9068C01CE010E94FE06800F911FDF912E
S1130E20CF911F910F91089508951F920F920FB6BD
S1130E300F9211242F933F934F935F936F937F935C
S1130E408F939F93AF93BF93EF93FF93E09106012A
S1130E50F09107010995FF91EF91BF91AF919F9197
S1130E608F917F916F915F914F913F912F910F904F
S1130E700FBE0F901F9018951F920F920FB60F92EE
S1130E8011242F933F934F935F936F937F938F938B
S1130E909F93AF93BF93EF93FF93E0910801F09179
S1130EA009010995FF91EF91BF91AF919F918F91A6
S1130EB07F916F915F914F913F912F910F900FBE52
S1130EC00F901F9018951F920F920FB60F92112436
S1130ED02F933F938F939F93AF93BF938091250656
S1130EE090912606A0912706B091280630912406F9
S1130EF023E0230F2D3720F40196A11DB11D05C059
S1130F0026E8230F0296A11DB11D20932406809389
S1130F10250690932606A0932706B0932806809171
S1130F20290690912A06A0912B06B0912C060196D1
S1130F30A11DB11D8093290690932A06A0932B0628
S1130F40B0932C06BF91AF919F918F913F912F91B8
S1130F500F900FBE0F901F9018953FB7F894809193
S1130F60290690912A06A0912B06B0912C0626B54D
S1130F70A89B05C02F3F19F00196A11DB11D3FBFCD
S1130F80BA2FA92F982F8827820F911DA11DB11D5B
S1130F90BC01CD0142E0660F771F881F991F4A9557
S1130FA0D1F708958F929F92AF92BF92CF92DF9222
S1130FB0EF92FF926B017C010E94AD074B015C0133
S1130FC0C114D104E104F10401F10E94DD080E947E
S1130FD0AD07DC01CB0188199909AA09BB09883E30
S1130FE09340A105B10560F321E0C21AD108E108DC
S1130FF0F10888EE880E83E0981EA11CB11CC11470
S1131000D104E104F10419F7DBCFFF90EF90DF90F6
S1131010CF90BF90AF909F908F900895789484B5AF
S1131020826084BD84B5816084BD85B5826085BDE0
S113103085B5816085BDEEE6F0E0808181608083C6
S1131040E1E8F0E0108280818260808380818160A9
S11310508083E0E8F0E0808181608083E1EBF0E070
S1131060808184608083E0EBF0E080818160808314
S1131070EAE7F0E0808184608083808182608083FD
S11310808081816080838081806880831092C10028
S11310900895833081F028F4813099F08230A1F0F2
S11310A008958730A9F08830B9F08430D1F4809164
S11310B080008F7D03C0809180008F7780938000B3
S11310C0089584B58F7702C084B58F7D84BD08955B
S11310D08091B0008F7703C08091B0008F7D8093A2
S11310E0B0000895CF93DF9390E0FC01E458FF4FE4
S11310F02491FC01E057FF4F8491882361F190E033
S1131100880F991FFC01E255FF4FC591D491FC0152
S1131110EC55FF4FA591B491611109C09FB7F894A4
S11311208881209582238883EC912E230BC0623022
S113113061F49FB7F8948881322F30958323888394
S1131140EC912E2B2C939FBF06C08FB7F894E881A7
S11311502E2B28838FBFDF91CF9108951F93CF93B8
S1131160DF93282F30E0F901E859FF4F8491F9010A
S1131170E458FF4FD491F901E057FF4FC491CC23B9
S1131180C1F0162F81110E944908EC2FF0E0EE0FF8
S1131190FF1FEC55FF4FA591B4919FB7F89411111F
S11311A004C08C91D095D82302C0EC91DE2BDC9343
S11311B09FBFDF91CF911F910895089597FB072E4C
S11311C016F4009407D077FD09D00E94140907FC97
S11311D005D03EF4909581959F4F08957095619543
S11311E07F4F0895A1E21A2EAA1BBB1BFD010DC05F
S11311F0AA1FBB1FEE1FFF1FA217B307E407F507C3
S113120020F0A21BB30BE40BF50B661F771F881F9E
S1131210991F1A9469F760957095809590959B0134
S1131220AC01BD01CF010895AA1BBB1B51E107C04E
S1131230AA1FBB1FA617B70710F0A61BB70B881F62
S1131240991F5A95A9F780959095BC01CD010895F1
S1131250EE0FFF1F0590F491E02D09940F931F9357
S1131260CF93DF938230910510F482E090E0E09117
S11312702F06F091300620E030E0A0E0B0E0309797
S113128019F1408151810281138148175907C8F02F
S11312908417950769F4109731F012960C931297FE
S11312A013961C9327C000932F061093300622C078
S11312B02115310519F04217530718F49A01BD019D
S11312C0EF01DF01F801DBCF21153105F9F0281B0F
S11312D0390B2430310580F48A819B8161157105B5
S11312E021F0FB019383828304C0909330068093A2
S11312F02F06FE01329644C0FE01E20FF31F8193D4
S1131300919322503109398328833AC020912D06C4
S113131030912E06232B41F42091020130910301D8
S113132030932E0620932D06209100013091010167
S11313302115310541F42DB73EB740910401509178
S11313400501241B350BE0912D06F0912E06E217C2
S1131350F307A0F42E1B3F0B2817390778F0AC01D4
S11313604E5F5F4F2417350748F04E0F5F1F5093B1
S11313702E0640932D068193919302C0E0E0F0E0A5
S1131380CF01DF91CF911F910F910895CF93DF93F8
S1131390009709F481C0FC01329713821282A09154
S11313A02F06B0913006109781F420813181820F8D
S11313B0931F20912D0630912E062817390751F5D9
S11313C0F0932E06E0932D0667C0ED0120E030E097
S11313D0CE17DF0740F44A815B819E014115510518
S11313E0F1F0EA01F5CFD383C28340815181840FA8
S11313F0951FC817D90759F488819981840F951FBF
S11314000296918380838A819B81938382832115B1
S1131410310529F4F0933006E0932F063DC0E9012D
S1131420FB83EA8349915991C40FD51FEC17FD073B
S113143061F480819181840F951F0296E90199835B
S11314408883828193819B838A83E0E0F0E0129613
S11314508D919C911397009719F0FD01DC01F7CF52
S11314608D919C9111979D012E5F3F4F820F931F89
S113147020912D0630912E062817390769F43097EC
S113148029F41092300610922F0602C013821282A1
S1131490B0932E06A0932D06DF91CF910895FB0102
S11314A0DC0101900D920020E1F70895AEE0B0E078
S11314B0ECE5FAE00C94170D0D891E8986E08C8307
S11314C01A8309838FEF9FE79E838D83AE01475E66
S11314D05F4F6F89788DCE0101960E94780AEF8163
S11314E0F885E00FF11F10822E96E4E00C94330D82
S11314F0ABE0B0E0EEE7FAE00C94090D6C017B017F
S11315008A01FC0117821682838181FFCCC1CE013E
S113151001963C01F6019381F70193FD859193FFB8
S113152081917F01882309F4BAC1853239F493FD8E
S1131530859193FF81917F01853229F4B60190E072
S11315400E946F0CE7CF912C212C312CFFE1F31575
S1131550D8F08B3279F038F4803279F08332A1F408
S1131560232D20611DC08D3261F0803369F4232D59
S1131570216016C0832D8260382EE32DE4603E2E58
S11315802AC0F32DF8601DC037FC2DC020ED280FB4
S11315902A3040F08E32B9F436FC81C1232D206408
S11315A0322E19C036FE06C08AE0989E200D112402
S11315B0922E11C0EAE02E9E200D1124222EF32D2E
S11315C0F0623F2E08C08C3621F4832D8068382EBB
S11315D002C0883641F4F70193FD859193FF819110
S11315E07F018111B3CF982F9F7D9554933028F4B8
S11315F00C5F1F4F9FE399830DC0833631F083370F
S113160071F0833509F059C021C0F80180818983C4
S11316100E5F1F4F88248394912C530113C028011B
S1131620F2E04F0E511CF801A080B18036FE03C0D9
S1131630692D70E002C06FEF7FEFC5010E94640C5A
S11316404C018201F32DFF773F2E16C0280122E0C2
S1131650420E511CF801A080B18036FE03C0692DF2
S113166070E002C06FEF7FEFC5010E94590C4C017E
S1131670F32DF0683F2E820133FC1BC0822D90E0D5
S113168088169906B0F4B60180E290E00E946F0CCF
S11316902A94F4CFF50137FC859137FE81915F01DF
S11316A0B60190E00E946F0C21102A9421E0821A66
S11316B091088114910471F7E8C0843611F08936D9
S11316C041F5F80137FE07C0608171818281938101
S11316D00C5F1F4F08C060817181072E000C880BBE
S11316E0990B0E5F1F4FF32DFF763F2E97FF09C016
S11316F090958095709561957F4F8F4F9F4FF068BF
S11317003F2E2AE030E0A3010E94AB0C882E8618FD
S113171045C0853731F4232D2F7EB22E2AE030E0E8
S113172025C0932D997FB92E8F36C1F018F48835D2
S113173079F0B5C0803719F0883721F0B0C0E92FAF
S1131740E061BE2EB4FE0DC0FB2DF460BF2E09C0B7
S113175034FE0AC0292F2660B22E06C028E030E0ED
S113176005C020E130E002C020E132E0F801B7FE1C
S113177007C060817181828193810C5F1F4F06C015
S11317806081718180E090E00E5F1F4FA3010E9491
S1131790AB0C882E8618FB2DFF773F2E36FE0DC02E
S11317A0232D2E7FA22E891458F434FE0BC032FC54
S11317B009C0832D8E7EA82E05C0B82CA32C03C08F
S11317C0B82C01C0B92CA4FE0FC0FE01E80DF11D18
S11317D08081803321F49A2D997EA92E09C0A2FE1E
S11317E006C0B394B39404C08A2D867809F0B394E8
S11317F0A3FC11C0A0FE06C0B21488F4280C922CDD
S11318009B180EC0B21460F4B60180E290E00E940E
S11318106F0CB394F7CFB21418F42B1802C0982CA1
S1131820212CA4FE10C0B60180E390E00E946F0C4E
S1131830A2FE17C0A1FC03C088E790E002C088E5BF
S113184090E0B6010CC08A2D867859F0A1FE02C042
S11318508BE201C080E2A7FC8DE2B60190E00E9419
S11318606F0C891438F4B60180E390E00E946F0C89
S11318709A94F7CF8A94F301E80DF11D8081B601A3
S113188090E00E946F0C8110F5CF222009F442CE23
S1131890B60180E290E00E946F0C2A94F6CFF60124
S11318A08681978102C08FEF9FEF2B96E2E10C9423
S11318B0250DFC010590615070400110D8F780950A
S11318C090958E0F9F1F0895FC0161507040019008
S11318D00110D8F7809590958E0F9F1F08950F9350
S11318E01F93CF93DF93FB01238121FD03C08FEF6F
S11318F09FEF2CC022FF16C0468157812481358179
S11319004217530744F4A081B1819D012F5F3F4FDB
S1131910318320838C93268137812F5F3F4F378318
S1131920268314C08B01EC01FB010084F185E02DBA
S11319300995892BE1F6D80116968D919C911797FC
S1131940019617969C938E931697CE01DF91CF91B3
S11319501F910F910895FA01AA27283051F12031DF
S113196081F1E8946F936E7F6E5F7F4F8F4F9F4F2F
S1131970AF4FB1E03ED0B4E03CD0670F781F891F71
S11319809A1FA11D680F791F8A1F911DA11D6A0F3F
S1131990711D811D911DA11D20D009F468943F91F2
S11319A02AE0269F11243019305D3193DEF6CF01F1
S11319B00895462F4770405D4193B3E00FD0C9F7B7
S11319C0F6CF462F4F70405D4A3318F0495D31FD24
S11319D04052419302D0A9F7EACFB4E0A695979577
S11319E0879577956795BA95C9F70097610571054D
S11319F008959B01AC010A2E069457954795379597
S1131A002795BA95C9F7620F731F841F951FA01DF0
S1131A1008952F923F924F925F926F927F928F928E
S1131A209F92AF92BF92CF92DF92EF92FF920F9369
S1131A301F93CF93DF93CDB7DEB7CA1BDB0B0FB673
S1131A40F894DEBF0FBECDBF09942A883988488830
S1131A505F846E847D848C849B84AA84B984C884C6
S1131A60DF80EE80FD800C811B81AA81B981CE0FBD
S1131A70D11D0FB6F894DEBF0FBECDBFED010895A2
S1131A8010E0CEE5D0E004C0FE010E9428092196B2
S10D1A90CF35D107C9F7F894FFCF52
S1131A9A000031062000140714075761726E696E3C
S1131AAA67207765206465746563742061207361B7
S1131ABA6D652064697374616E636520666F722054
S1131ACA61206120646966666572656E74206C6162
S1131ADA6E646D61726B003E3E3E3E4552524F52F9
S1131AEA204C616E646D61726B203D20312028495F
S1131AFA7420636F756C642062652074686520665F
S1131B0A69727374206C616E646D61726B207265A4
S1131B1A6164656E206279207468652073797374D0
S1131B2A656D2920003E3E3E3E4552524F52204C9E
S1131B3A616E646D61726B203D203220287265618A
S1131B4A64446972656374696F6E2920003E3E3E7F
S1131B5A3E4552524F52204C616E646D61726B2045
S1131B6A3D20332028626172206C656E6774682098
S1131B7A6973206E6F7420636F72726563742029AF
S1131B8A004C414E444D41524B5F4142534F4C55D8
S1131B9A54455F30203A204C616E646D61726B501B
S1131BAA6F736974696F6E203D202568752C09412D
S1131BBA42534F4C5554455F305F504F5349544933
S1131BCA4F4E3D2568752C09475F4C696E65506F09
S1131BDA736974696F6E3D25687509004C414E44FA
S1131BEA4D41524B5F4142534F4C5554455F31204E
S1131BFA3A204C616E646D61726B506F73697469DB
S1131C0A6F6E203D202568752C094142534F4C556F
S1131C1A54455F315F504F534954494F4E3D2568EF
S1131C2A752C09475F4C696E65506F736974696FE7
S1131C3A6E3D256875004C414E444D41524B5F41FF
S1131C4A42534F4C5554455F32203A204C616E64DE
S1131C5A6D61726B506F736974696F6E203D2025D4
S1131C6A68752C094142534F4C5554455F305F50B7
S1131C7A4F534954494F4E3D2568752C09475F4CCB
S1131C8A696E65506F736974696F6E3D2568750076
S1131C9A41636365707461626C6520446966662099
S1131CAA3A2044696666203D202568752C0920502F
S1131CBA7265496E637265506F736974696F6E2BCE
S1131CCA494E4352454D454E54414C5F4449535441
S1131CDA414E43453D2568752C09204C616E646D5F
S1131CEA61726B506F736974696F6E3D2568750014
S1131CFA4572726F72204269672044696666203AA7
S1131D0A2044696666203D202568752C0920507296
S1131D1A65496E637265506F736974696F6E2B4996
S1131D2A4E4352454D454E54414C5F4449535441E8
S1131D3A4E43453D2568752C09204C616E646D61DE
S1131D4A726B506F736974696F6E3D256875003DD7
S1131D5A3E204241445F4C494E455F504F534954DB
S1131D6A494F4E0043616E6E6F7420496E637472FC
S1131D7A656D656E742069742773206120626164DD
S1131D8A20706F736974696F6E002A2A2A2053744B
S1131D9A617274696E67204C616E646D61726B2046
S1131DAA5265616465722070726F7267616D202A70
S1131DBA2A2A0A2A2A2A2A2A2A2A2A2A2A2A2A2A95
S1131DCA2A2A2A2A2A2A2A2A2A2A2A2A2A2A2A2A65
S1131DDA2A2A2A2A2A2A2A2A2A2A2A0051554555E7
S1131DEA453A206572726F722064756520746F209B
S1131DFA756E646573697261626C652073697A656C
S1131E0A20666F722071756575652073697A652E0F
S1131E1A0051554555453A20696E7375666669637E
S1131E2A69656E74206D656D6F727920746F2069AF
S1131E3A6E697469616C697A652074656D706F7214
S1131E4A6172792071756575652E00000000004C79
S1131E5A05BF060D059905DF04F904EB040D0A0014
S10F1E6A6E616E00696E66006F766600A3
S9030000FC
